{
  "address": "0x6f632A50a30D5A39Bc030b1d00fA58A165Df75b1",
  "abi": [
    {
      "inputs": [
        {
          "internalType": "contract IEAS",
          "name": "eas",
          "type": "address"
        },
        {
          "internalType": "bytes32",
          "name": "listingSchemaUID",
          "type": "bytes32"
        }
      ],
      "stateMutability": "nonpayable",
      "type": "constructor"
    },
    {
      "inputs": [],
      "name": "InvalidEAS",
      "type": "error"
    },
    {
      "inputs": [],
      "name": "_eas",
      "outputs": [
        {
          "internalType": "contract IEAS",
          "name": "",
          "type": "address"
        }
      ],
      "stateMutability": "view",
      "type": "function"
    },
    {
      "inputs": [],
      "name": "_listingSchemaUID",
      "outputs": [
        {
          "internalType": "bytes32",
          "name": "",
          "type": "bytes32"
        }
      ],
      "stateMutability": "view",
      "type": "function"
    },
    {
      "inputs": [
        {
          "internalType": "uint256",
          "name": "listingId",
          "type": "uint256"
        },
        {
          "internalType": "string",
          "name": "listingName",
          "type": "string"
        },
        {
          "internalType": "address",
          "name": "seller",
          "type": "address"
        }
      ],
      "name": "attestListing",
      "outputs": [
        {
          "internalType": "bytes32",
          "name": "attestationUID",
          "type": "bytes32"
        }
      ],
      "stateMutability": "nonpayable",
      "type": "function"
    }
  ],
  "transactionHash": "0xc41e44b172f055763a0655822435700445c8b074a06857f995b864637a37074a",
  "args": [
    "0x4200000000000000000000000000000000000021",
    "0x78322a5635d33090ff3aaa05e12910c29ce2f861d61774b8eeeac99fe312952f"
  ],
  "numDeployments": 1,
  "solcInputHash": "26fe3d9783c5af2f4fe33183bb353720",
  "bytecode": "0x60c060405234801561001057600080fd5b5060405161052538038061052583398101604081905261002f9161006c565b6001600160a01b038216610056576040516341bc07ff60e11b815260040160405180910390fd5b6001600160a01b0390911660805260a0526100a6565b6000806040838503121561007f57600080fd5b82516001600160a01b038116811461009657600080fd5b6020939093015192949293505050565b60805160a05161044f6100d66000396000818160b00152610110015260008181604b015260d6015261044f6000f3fe608060405234801561001057600080fd5b50600436106100415760003560e01c806330f97eea146100465780634766aa711461008a5780637f811eb7146100ab575b600080fd5b61006d7f000000000000000000000000000000000000000000000000000000000000000081565b6040516001600160a01b0390911681526020015b60405180910390f35b61009d61009836600461023b565b6100d2565b604051908152602001610081565b61009d7f000000000000000000000000000000000000000000000000000000000000000081565b60007f00000000000000000000000000000000000000000000000000000000000000006001600160a01b031663f17325e760405180604001604052807f000000000000000000000000000000000000000000000000000000000000000081526020016040518060c00160405280876001600160a01b03168152602001600067ffffffffffffffff1681526020016001151581526020016000801b81526020018989896040516020016101869392919061034c565b604051602081830303815290604052815260200160008152508152506040518263ffffffff1660e01b81526004016101be919061037d565b6020604051808303816000875af11580156101dd573d6000803e3d6000fd5b505050506040513d601f19601f820116820180604052508101906102019190610400565b949350505050565b634e487b7160e01b600052604160045260246000fd5b80356001600160a01b038116811461023657600080fd5b919050565b60008060006060848603121561025057600080fd5b83359250602084013567ffffffffffffffff8082111561026f57600080fd5b818601915086601f83011261028357600080fd5b81358181111561029557610295610209565b604051601f8201601f19908116603f011681019083821181831017156102bd576102bd610209565b816040528281528960208487010111156102d657600080fd5b8260208601602083013760006020848301015280965050505050506102fd6040850161021f565b90509250925092565b6000815180845260005b8181101561032c57602081850181015186830182015201610310565b506000602082860101526020601f19601f83011685010191505092915050565b8381526060602082015260006103656060830185610306565b905060018060a01b0383166040830152949350505050565b60208152815160208201526000602083015160408084015260018060a01b03815116606084015267ffffffffffffffff60208201511660808401526040810151151560a0840152606081015160c0840152608081015160c060e08501526103e8610120850182610306565b905060a0820151610100850152809250505092915050565b60006020828403121561041257600080fd5b505191905056fea2646970667358221220db7b2ecda51e499562ad756e5d76b43be7f3e872ed1bf8bd26a0cfdaa07d146c64736f6c63430008110033",
  "devdoc": {
    "kind": "dev",
    "methods": {},
    "version": 1
  },
  "userdoc": {
    "kind": "user",
    "methods": {},
    "version": 1
  },
  "storageLayout": {
    "storage": [],
    "types": null
  }
}