{
  "address": "0x85Dfc9278E438DBc7754f0bF09fED1344F184A82",
  "abi": [
    {
      "inputs": [
        {
          "internalType": "address",
          "name": "listingAttester",
          "type": "address"
        },
        {
          "internalType": "address",
          "name": "listingConnectionAttester",
          "type": "address"
        },
        {
          "internalType": "address",
          "name": "listingPaymentAttester",
          "type": "address"
        }
      ],
      "stateMutability": "nonpayable",
      "type": "constructor"
    },
    {
      "inputs": [],
      "name": "FailedTodSendEther",
      "type": "error"
    },
    {
      "inputs": [
        {
          "internalType": "uint256",
          "name": "listingId",
          "type": "uint256"
        }
      ],
      "name": "Listings_ListingUnavailableForBuying",
      "type": "error"
    },
    {
      "inputs": [
        {
          "internalType": "address",
          "name": "connectedUser",
          "type": "address"
        }
      ],
      "name": "Listings__InvalidConnectedUser",
      "type": "error"
    },
    {
      "inputs": [
        {
          "internalType": "address",
          "name": "seller",
          "type": "address"
        }
      ],
      "name": "Listings__InvalidSeller",
      "type": "error"
    },
    {
      "inputs": [
        {
          "internalType": "uint256",
          "name": "listingId",
          "type": "uint256"
        }
      ],
      "name": "Listings__NotExistedListingId",
      "type": "error"
    },
    {
      "inputs": [
        {
          "internalType": "address",
          "name": "connectedUser",
          "type": "address"
        },
        {
          "internalType": "uint256",
          "name": "listingId",
          "type": "uint256"
        }
      ],
      "name": "Listings__SellerCannotSelfConnected",
      "type": "error"
    },
    {
      "inputs": [
        {
          "internalType": "uint256",
          "name": "amountOfETH",
          "type": "uint256"
        },
        {
          "internalType": "uint256",
          "name": "price",
          "type": "uint256"
        }
      ],
      "name": "Listings__UnequalAmountOfETHAndPrice",
      "type": "error"
    },
    {
      "inputs": [
        {
          "internalType": "address",
          "name": "connectedUser",
          "type": "address"
        },
        {
          "internalType": "uint256",
          "name": "listingId",
          "type": "uint256"
        }
      ],
      "name": "Listings__UserAlreadyConnected",
      "type": "error"
    },
    {
      "anonymous": false,
      "inputs": [
        {
          "indexed": true,
          "internalType": "address",
          "name": "seller",
          "type": "address"
        },
        {
          "indexed": false,
          "internalType": "uint256",
          "name": "listingId",
          "type": "uint256"
        }
      ],
      "name": "AddListing",
      "type": "event"
    },
    {
      "anonymous": false,
      "inputs": [
        {
          "indexed": true,
          "internalType": "address",
          "name": "buyer",
          "type": "address"
        },
        {
          "indexed": false,
          "internalType": "uint256",
          "name": "listingId",
          "type": "uint256"
        }
      ],
      "name": "BuyListing",
      "type": "event"
    },
    {
      "anonymous": false,
      "inputs": [
        {
          "indexed": true,
          "internalType": "address",
          "name": "connectedUser",
          "type": "address"
        },
        {
          "indexed": false,
          "internalType": "uint256",
          "name": "listingId",
          "type": "uint256"
        }
      ],
      "name": "CreateListingConnection",
      "type": "event"
    },
    {
      "anonymous": false,
      "inputs": [
        {
          "indexed": true,
          "internalType": "address",
          "name": "seller",
          "type": "address"
        },
        {
          "indexed": false,
          "internalType": "uint256",
          "name": "listingId",
          "type": "uint256"
        }
      ],
      "name": "DeleteListing",
      "type": "event"
    },
    {
      "anonymous": false,
      "inputs": [
        {
          "indexed": true,
          "internalType": "address",
          "name": "seller",
          "type": "address"
        },
        {
          "indexed": false,
          "internalType": "uint256",
          "name": "listingId",
          "type": "uint256"
        },
        {
          "indexed": false,
          "internalType": "string",
          "name": "newName",
          "type": "string"
        }
      ],
      "name": "UpdateListing",
      "type": "event"
    },
    {
      "inputs": [],
      "name": "_listingAttester",
      "outputs": [
        {
          "internalType": "contract ListingAttester",
          "name": "",
          "type": "address"
        }
      ],
      "stateMutability": "view",
      "type": "function"
    },
    {
      "inputs": [],
      "name": "_listingConnectionAttester",
      "outputs": [
        {
          "internalType": "contract ListingConnectionAttester",
          "name": "",
          "type": "address"
        }
      ],
      "stateMutability": "view",
      "type": "function"
    },
    {
      "inputs": [],
      "name": "_listingPaymentAttester",
      "outputs": [
        {
          "internalType": "contract ListingPaymentAttester",
          "name": "",
          "type": "address"
        }
      ],
      "stateMutability": "view",
      "type": "function"
    },
    {
      "inputs": [
        {
          "internalType": "string",
          "name": "name",
          "type": "string"
        },
        {
          "internalType": "string",
          "name": "location",
          "type": "string"
        },
        {
          "internalType": "string",
          "name": "description",
          "type": "string"
        },
        {
          "internalType": "uint256",
          "name": "price",
          "type": "uint256"
        },
        {
          "internalType": "uint256",
          "name": "beds",
          "type": "uint256"
        },
        {
          "internalType": "string",
          "name": "cid",
          "type": "string"
        }
      ],
      "name": "addListing",
      "outputs": [],
      "stateMutability": "nonpayable",
      "type": "function"
    },
    {
      "inputs": [
        {
          "internalType": "uint256",
          "name": "id",
          "type": "uint256"
        }
      ],
      "name": "buyListing",
      "outputs": [],
      "stateMutability": "payable",
      "type": "function"
    },
    {
      "inputs": [
        {
          "internalType": "uint256",
          "name": "",
          "type": "uint256"
        }
      ],
      "name": "buyers",
      "outputs": [
        {
          "internalType": "address",
          "name": "",
          "type": "address"
        }
      ],
      "stateMutability": "view",
      "type": "function"
    },
    {
      "inputs": [
        {
          "internalType": "uint256",
          "name": "",
          "type": "uint256"
        },
        {
          "internalType": "address",
          "name": "",
          "type": "address"
        }
      ],
      "name": "connectedUsers",
      "outputs": [
        {
          "internalType": "bool",
          "name": "",
          "type": "bool"
        }
      ],
      "stateMutability": "view",
      "type": "function"
    },
    {
      "inputs": [
        {
          "internalType": "uint256",
          "name": "listingId",
          "type": "uint256"
        }
      ],
      "name": "createListingConnection",
      "outputs": [
        {
          "internalType": "bytes32",
          "name": "attestationUID",
          "type": "bytes32"
        }
      ],
      "stateMutability": "nonpayable",
      "type": "function"
    },
    {
      "inputs": [
        {
          "internalType": "uint256",
          "name": "id",
          "type": "uint256"
        }
      ],
      "name": "deleteListing",
      "outputs": [],
      "stateMutability": "nonpayable",
      "type": "function"
    },
    {
      "inputs": [
        {
          "internalType": "uint256",
          "name": "",
          "type": "uint256"
        }
      ],
      "name": "existingIds",
      "outputs": [
        {
          "internalType": "bool",
          "name": "",
          "type": "bool"
        }
      ],
      "stateMutability": "view",
      "type": "function"
    },
    {
      "inputs": [],
      "name": "getAllListingConnections",
      "outputs": [
        {
          "components": [
            {
              "internalType": "uint256",
              "name": "listingId",
              "type": "uint256"
            },
            {
              "internalType": "address",
              "name": "connectedUser",
              "type": "address"
            },
            {
              "internalType": "bytes32",
              "name": "attestationUID",
              "type": "bytes32"
            }
          ],
          "internalType": "struct Listings.ListingConnection[]",
          "name": "allListingConnections",
          "type": "tuple[]"
        }
      ],
      "stateMutability": "view",
      "type": "function"
    },
    {
      "inputs": [],
      "name": "getAllListingPayments",
      "outputs": [
        {
          "components": [
            {
              "internalType": "uint256",
              "name": "listingId",
              "type": "uint256"
            },
            {
              "internalType": "address",
              "name": "buyer",
              "type": "address"
            },
            {
              "internalType": "bytes32",
              "name": "attestationUID",
              "type": "bytes32"
            }
          ],
          "internalType": "struct Listings.ListingPayment[]",
          "name": "allListingPayments",
          "type": "tuple[]"
        }
      ],
      "stateMutability": "view",
      "type": "function"
    },
    {
      "inputs": [],
      "name": "getAllListings",
      "outputs": [
        {
          "components": [
            {
              "internalType": "uint256",
              "name": "id",
              "type": "uint256"
            },
            {
              "internalType": "string",
              "name": "name",
              "type": "string"
            },
            {
              "internalType": "address",
              "name": "seller",
              "type": "address"
            },
            {
              "internalType": "bytes32",
              "name": "attestationUID",
              "type": "bytes32"
            },
            {
              "internalType": "string",
              "name": "location",
              "type": "string"
            },
            {
              "internalType": "string",
              "name": "description",
              "type": "string"
            },
            {
              "internalType": "uint256",
              "name": "price",
              "type": "uint256"
            },
            {
              "internalType": "uint256",
              "name": "beds",
              "type": "uint256"
            },
            {
              "internalType": "string",
              "name": "cid",
              "type": "string"
            }
          ],
          "internalType": "struct Listings.Listing[]",
          "name": "allListings",
          "type": "tuple[]"
        }
      ],
      "stateMutability": "view",
      "type": "function"
    },
    {
      "inputs": [
        {
          "internalType": "uint256",
          "name": "",
          "type": "uint256"
        }
      ],
      "name": "idToIndex",
      "outputs": [
        {
          "internalType": "uint256",
          "name": "",
          "type": "uint256"
        }
      ],
      "stateMutability": "view",
      "type": "function"
    },
    {
      "inputs": [
        {
          "internalType": "uint256",
          "name": "",
          "type": "uint256"
        }
      ],
      "name": "listingConnections",
      "outputs": [
        {
          "internalType": "uint256",
          "name": "listingId",
          "type": "uint256"
        },
        {
          "internalType": "address",
          "name": "connectedUser",
          "type": "address"
        },
        {
          "internalType": "bytes32",
          "name": "attestationUID",
          "type": "bytes32"
        }
      ],
      "stateMutability": "view",
      "type": "function"
    },
    {
      "inputs": [
        {
          "internalType": "uint256",
          "name": "",
          "type": "uint256"
        }
      ],
      "name": "listingPayments",
      "outputs": [
        {
          "internalType": "uint256",
          "name": "listingId",
          "type": "uint256"
        },
        {
          "internalType": "address",
          "name": "buyer",
          "type": "address"
        },
        {
          "internalType": "bytes32",
          "name": "attestationUID",
          "type": "bytes32"
        }
      ],
      "stateMutability": "view",
      "type": "function"
    },
    {
      "inputs": [
        {
          "internalType": "uint256",
          "name": "",
          "type": "uint256"
        }
      ],
      "name": "listings",
      "outputs": [
        {
          "internalType": "uint256",
          "name": "id",
          "type": "uint256"
        },
        {
          "internalType": "string",
          "name": "name",
          "type": "string"
        },
        {
          "internalType": "address",
          "name": "seller",
          "type": "address"
        },
        {
          "internalType": "bytes32",
          "name": "attestationUID",
          "type": "bytes32"
        },
        {
          "internalType": "string",
          "name": "location",
          "type": "string"
        },
        {
          "internalType": "string",
          "name": "description",
          "type": "string"
        },
        {
          "internalType": "uint256",
          "name": "price",
          "type": "uint256"
        },
        {
          "internalType": "uint256",
          "name": "beds",
          "type": "uint256"
        },
        {
          "internalType": "string",
          "name": "cid",
          "type": "string"
        }
      ],
      "stateMutability": "view",
      "type": "function"
    },
    {
      "inputs": [
        {
          "internalType": "uint256",
          "name": "id",
          "type": "uint256"
        },
        {
          "internalType": "string",
          "name": "name",
          "type": "string"
        },
        {
          "internalType": "string",
          "name": "location",
          "type": "string"
        },
        {
          "internalType": "string",
          "name": "description",
          "type": "string"
        },
        {
          "internalType": "uint256",
          "name": "price",
          "type": "uint256"
        },
        {
          "internalType": "uint256",
          "name": "beds",
          "type": "uint256"
        }
      ],
      "name": "updateListing",
      "outputs": [],
      "stateMutability": "nonpayable",
      "type": "function"
    }
  ],
  "transactionHash": "0x7267c8dd05334b625f06afd15f8e4fe0f08570c89ef1997e45e2fa9d091f4a2c",
  "args": [
    "0x6f632A50a30D5A39Bc030b1d00fA58A165Df75b1",
    "0x71f11Cf50EFF5A49c9cf60D75d1e3b32950D83fE",
    "0xE07CB215190DfbF59c80C4bdc16F4291e19704Fd"
  ],
  "numDeployments": 1,
  "solcInputHash": "adfcf8aa9a28ea65bb913dea67710c50",
  "bytecode": "0x60e06040523480156200001157600080fd5b50604051620024003803806200240083398101604081905262000034916200006f565b6001600160a01b0392831660805290821660a0521660c052620000b9565b80516001600160a01b03811681146200006a57600080fd5b919050565b6000806000606084860312156200008557600080fd5b620000908462000052565b9250620000a06020850162000052565b9150620000b06040850162000052565b90509250925092565b60805160a05160c051612302620000fe6000396000818161018a015261094f0152600081816103130152610ebd0152600081816102df01526104a001526123026000f3fe6080604052600436106101095760003560e01c80639987224f11610095578063c9793e4d11610064578063c9793e4d14610377578063de74e57b14610399578063e6282c6e146103ce578063f2aa8218146103ee578063ff2a5a821461042457600080fd5b80639987224f146102cd578063a7613c0014610301578063ac8c505114610335578063ae73ccec1461035557600080fd5b80633df6db72116100dc5780633df6db72146101e45780634884f4591461021f57806369d98bdc14610232578063770985191461027d57806386df3b81146102ad57600080fd5b8063083673171461010e5780631f16f82a1461015657806333ff646b146101785780633dd17d45146101c4575b600080fd5b34801561011a57600080fd5b5061012e6101293660046119eb565b610446565b604080519384526001600160a01b039092166020840152908201526060015b60405180910390f35b34801561016257600080fd5b50610176610171366004611a4d565b610485565b005b34801561018457600080fd5b506101ac7f000000000000000000000000000000000000000000000000000000000000000081565b6040516001600160a01b03909116815260200161014d565b3480156101d057600080fd5b5061012e6101df3660046119eb565b6107c9565b3480156101f057600080fd5b506102116101ff3660046119eb565b60036020526000908152604090205481565b60405190815260200161014d565b61017661022d3660046119eb565b6107d9565b34801561023e57600080fd5b5061026d61024d366004611b27565b600460209081526000928352604080842090915290825290205460ff1681565b604051901515815260200161014d565b34801561028957600080fd5b5061026d6102983660046119eb565b60016020526000908152604090205460ff1681565b3480156102b957600080fd5b506101766102c8366004611b63565b610b61565b3480156102d957600080fd5b506101ac7f000000000000000000000000000000000000000000000000000000000000000081565b34801561030d57600080fd5b506101ac7f000000000000000000000000000000000000000000000000000000000000000081565b34801561034157600080fd5b506102116103503660046119eb565b610d6e565b34801561036157600080fd5b5061036a61104e565b60405161014d9190611c5f565b34801561038357600080fd5b5061038c611335565b60405161014d9190611d64565b3480156103a557600080fd5b506103b96103b43660046119eb565b6113ae565b60405161014d99989796959493929190611dcf565b3480156103da57600080fd5b506101766103e93660046119eb565b611636565b3480156103fa57600080fd5b506101ac6104093660046119eb565b6006602052600090815260409020546001600160a01b031681565b34801561043057600080fd5b5061043961191d565b60405161014d9190611e58565b6005818154811061045657600080fd5b60009182526020909120600390910201805460018201546002909201549092506001600160a01b039091169083565b60008054604051634766aa7160e01b81526001600160a01b037f00000000000000000000000000000000000000000000000000000000000000001691634766aa71916104da91908f908f903390600401611ee0565b6020604051808303816000875af11580156104f9573d6000803e3d6000fd5b505050506040513d601f19601f8201168201806040525081019061051d9190611f13565b9050600060405180610120016040528060005481526020018d8d8080601f0160208091040260200160405190810160405280939291908181526020018383808284376000920191909152505050908252503360208083019190915260408083018690528051601f8e018390048302810183019091528c8152606090920191908d908d9081908401838280828437600092019190915250505090825250604080516020601f8c018190048102820181019092528a815291810191908b908b9081908401838280828437600092019190915250505090825250602080820189905260408083018990528051601f88018390048302810183019091528681526060909201919087908790819084018382808284376000920182905250939094525050600280546001810182559152825160099091027f405787fa12a823e0f2b7631cc41b3ba8828b3321ca811111fa75cd3aa3bb5ace8101918255602084015193945084939192507f405787fa12a823e0f2b7631cc41b3ba8828b3321ca811111fa75cd3aa3bb5acf01906106af9082611fe0565b5060408201516002820180546001600160a01b0319166001600160a01b0390921691909117905560608201516003820155608082015160048201906106f49082611fe0565b5060a082015160058201906107099082611fe0565b5060c0820151600682015560e0820151600782015561010082015160088201906107339082611fe0565b5050600080548152600160208190526040909120805460ff19168217905560025461075e92506120b0565b81516000908152600360205260408120919091558054908061077f836120c9565b9091555050805160405190815233907f08997a2eaf1f512d7c641d0bb5433146d04c8b8d4717821d9e9202c1a4cc482f9060200160405180910390a2505050505050505050505050565b6007818154811061045657600080fd5b600081815260016020526040902054819060ff1661081257604051630faae56760e31b8152600481018290526024015b60405180910390fd5b60008281526006602052604090205482906001600160a01b03161561084d57604051630a8e8b3f60e31b815260048101829052602401610809565b6000838152600460209081526040808320338452909152902054839060ff1661088b5760405163222057ff60e11b8152336004820152602401610809565b60008481526003602052604090205460028054829081106108ae576108ae6120e2565b90600052602060002090600902016006015434146109105734600282815481106108da576108da6120e2565b90600052602060002090600902016006015460405163f21ed68160e01b8152600401610809929190918252602082015260400190565b60008581526006602052604080822080546001600160a01b03191633908117909155905163b621528b60e01b81526004810188905260248101919091527f00000000000000000000000000000000000000000000000000000000000000006001600160a01b03169063b621528b906044016020604051808303816000875af11580156109a0573d6000803e3d6000fd5b505050506040513d601f19601f820116820180604052508101906109c49190611f13565b60408051606081018252888152336020820190815291810183815260078054600181018255600091825283517fa66cc928b5edb82af9bd49922954155ab7b0942694bea4ce44661d9a8736c68860039092029182015593517fa66cc928b5edb82af9bd49922954155ab7b0942694bea4ce44661d9a8736c689850180546001600160a01b0319166001600160a01b0390921691909117905590517fa66cc928b5edb82af9bd49922954155ab7b0942694bea4ce44661d9a8736c68a9093019290925560028054939450909285908110610a9f57610a9f6120e2565b600091825260208220600990910201600201546040516001600160a01b039091169134919081818185875af1925050503d8060008114610afb576040519150601f19603f3d011682016040523d82523d6000602084013e610b00565b606091505b5050905080610b2257604051639b27ea3760e01b815260040160405180910390fd5b60405188815233907f45e2057366a910eb3d6b4c65b7f8badba3a0640414f72bb22e2228af3cc94f329060200160405180910390a25050505050505050565b600089815260016020526040902054899060ff16610b9557604051630faae56760e31b815260048101829052602401610809565b60008a815260036020526040902054600280548c92919082908110610bbc57610bbc6120e2565b60009182526020909120600990910201600201546001600160a01b03163314610bfa576040516302ce8c4560e61b8152336004820152602401610809565b60008c8152600360205260409020548a15610c44578b8b60028381548110610c2457610c246120e2565b90600052602060002090600902016001019182610c429291906120f8565b505b8815610c7f57898960028381548110610c5f57610c5f6120e2565b90600052602060002090600902016004019182610c7d9291906120f8565b505b8615610cba57878760028381548110610c9a57610c9a6120e2565b90600052602060002090600902016005019182610cb89291906120f8565b505b8515610cea578560028281548110610cd457610cd46120e2565b9060005260206000209060090201600601819055505b8415610d1a578460028281548110610d0457610d046120e2565b9060005260206000209060090201600701819055505b336001600160a01b03167fe836ac6d830a993abfa2fab111d6998409f8d4674fa079524c9d089ff50634608e8e8e604051610d57939291906121b3565b60405180910390a250505050505050505050505050565b600081815260016020526040812054829060ff16610da257604051630faae56760e31b815260048101829052602401610809565b60008381526006602052604090205483906001600160a01b031615610ddd57604051630a8e8b3f60e31b815260048101829052602401610809565b6000848152600360205260409020546002805482908110610e0057610e006120e2565b60009182526020909120600260099092020101546001600160a01b03163303610e4557604051630438ff8360e11b815233600482015260248101869052604401610809565b600085815260046020908152604080832033845290915290205460ff1615610e895760405163681e0f9f60e11b815233600482015260248101869052604401610809565b600085815260046020818152604080842033808652925292839020805460ff191660011790559151631755869960e01b81527f00000000000000000000000000000000000000000000000000000000000000006001600160a01b031692631755869992610f0b928a9291019182526001600160a01b0316602082015260400190565b6020604051808303816000875af1158015610f2a573d6000803e3d6000fd5b505050506040513d601f19601f82011682018060405250810190610f4e9190611f13565b604080516060810182528781523360208083018281528385018681526005805460018101825560009190915285517f036b6384b5eca791c62761152d0c79bb0604c104a5fb6f4eb0703f3154bb3db060039092029182015591517f036b6384b5eca791c62761152d0c79bb0604c104a5fb6f4eb0703f3154bb3db1830180546001600160a01b0319166001600160a01b03909216919091179055517f036b6384b5eca791c62761152d0c79bb0604c104a5fb6f4eb0703f3154bb3db2909101559251898152939750909290917f7815683ddea6b35ac11fe96ad50dede79ab35e797c56ce296057a4450b765daf910160405180910390a250505050919050565b60606002805480602002602001604051908101604052809291908181526020016000905b8282101561132c578382906000526020600020906009020160405180610120016040529081600082015481526020016001820180546110b090611f42565b80601f01602080910402602001604051908101604052809291908181526020018280546110dc90611f42565b80156111295780601f106110fe57610100808354040283529160200191611129565b820191906000526020600020905b81548152906001019060200180831161110c57829003601f168201915b505050918352505060028201546001600160a01b031660208201526003820154604082015260048201805460609092019161116390611f42565b80601f016020809104026020016040519081016040528092919081815260200182805461118f90611f42565b80156111dc5780601f106111b1576101008083540402835291602001916111dc565b820191906000526020600020905b8154815290600101906020018083116111bf57829003601f168201915b505050505081526020016005820180546111f590611f42565b80601f016020809104026020016040519081016040528092919081815260200182805461122190611f42565b801561126e5780601f106112435761010080835404028352916020019161126e565b820191906000526020600020905b81548152906001019060200180831161125157829003601f168201915b50505050508152602001600682015481526020016007820154815260200160088201805461129b90611f42565b80601f01602080910402602001604051908101604052809291908181526020018280546112c790611f42565b80156113145780601f106112e957610100808354040283529160200191611314565b820191906000526020600020905b8154815290600101906020018083116112f757829003601f168201915b50505050508152505081526020019060010190611072565b50505050905090565b60606005805480602002602001604051908101604052809291908181526020016000905b8282101561132c5760008481526020908190206040805160608101825260038602909201805483526001808201546001600160a01b031684860152600290910154918301919091529083529092019101611359565b600281815481106113be57600080fd5b600091825260209091206009909102018054600182018054919350906113e390611f42565b80601f016020809104026020016040519081016040528092919081815260200182805461140f90611f42565b801561145c5780601f106114315761010080835404028352916020019161145c565b820191906000526020600020905b81548152906001019060200180831161143f57829003601f168201915b505050506002830154600384015460048501805494956001600160a01b03909316949193509061148b90611f42565b80601f01602080910402602001604051908101604052809291908181526020018280546114b790611f42565b80156115045780601f106114d957610100808354040283529160200191611504565b820191906000526020600020905b8154815290600101906020018083116114e757829003601f168201915b50505050509080600501805461151990611f42565b80601f016020809104026020016040519081016040528092919081815260200182805461154590611f42565b80156115925780601f1061156757610100808354040283529160200191611592565b820191906000526020600020905b81548152906001019060200180831161157557829003601f168201915b5050505050908060060154908060070154908060080180546115b390611f42565b80601f01602080910402602001604051908101604052809291908181526020018280546115df90611f42565b801561162c5780601f106116015761010080835404028352916020019161162c565b820191906000526020600020905b81548152906001019060200180831161160f57829003601f168201915b5050505050905089565b600081815260016020526040902054819060ff1661166a57604051630faae56760e31b815260048101829052602401610809565b600082815260036020526040902054600280548492919082908110611691576116916120e2565b60009182526020909120600990910201600201546001600160a01b031633146116cf576040516302ce8c4560e61b8152336004820152602401610809565b600084815260036020526040902054805b6002546116ef906001906120b0565b81101561182d5760026117038260016121d6565b81548110611713576117136120e2565b906000526020600020906009020160028281548110611734576117346120e2565b60009182526020909120825460099092020190815560018082019061175b908401826121e9565b5060028281015490820180546001600160a01b0319166001600160a01b039092169190911790556003808301549082015560048082019061179e908401826121e9565b506005818101906117b1908401826121e9565b506006820154816006015560078201548160070155600882018160080190816117da91906121e9565b509050508060036000600284815481106117f6576117f66120e2565b9060005260206000209060090201600001548152602001908152602001600020819055508080611825906120c9565b9150506116e0565b50600280548061183f5761183f6122b6565b600082815260208120600960001990930192830201818155906118656001830182611995565b6002820180546001600160a01b031916905560006003830181905561188e906004840190611995565b61189c600583016000611995565b600682016000905560078201600090556008820160006118bc9190611995565b505090556000858152600160209081526040808320805460ff191690556003825280832092909255905186815233917ffce186960fd1e9668c92913cf5ec01591ec2cbc4548929392aaa7d128d5a9c97910160405180910390a25050505050565b60606007805480602002602001604051908101604052809291908181526020016000908282101561132c5760008481526020908190206040805160608101825260038602909201805483526001808201546001600160a01b031684860152600290910154918301919091529083529092019101611359565b5080546119a190611f42565b6000825580601f106119b1575050565b601f0160209004906000526020600020908101906119cf91906119d2565b50565b5b808211156119e757600081556001016119d3565b5090565b6000602082840312156119fd57600080fd5b5035919050565b60008083601f840112611a1657600080fd5b50813567ffffffffffffffff811115611a2e57600080fd5b602083019150836020828501011115611a4657600080fd5b9250929050565b60008060008060008060008060008060c08b8d031215611a6c57600080fd5b8a3567ffffffffffffffff80821115611a8457600080fd5b611a908e838f01611a04565b909c509a5060208d0135915080821115611aa957600080fd5b611ab58e838f01611a04565b909a50985060408d0135915080821115611ace57600080fd5b611ada8e838f01611a04565b909850965060608d0135955060808d0135945060a08d0135915080821115611b0157600080fd5b50611b0e8d828e01611a04565b915080935050809150509295989b9194979a5092959850565b60008060408385031215611b3a57600080fd5b8235915060208301356001600160a01b0381168114611b5857600080fd5b809150509250929050565b600080600080600080600080600060c08a8c031215611b8157600080fd5b8935985060208a013567ffffffffffffffff80821115611ba057600080fd5b611bac8d838e01611a04565b909a50985060408c0135915080821115611bc557600080fd5b611bd18d838e01611a04565b909850965060608c0135915080821115611bea57600080fd5b50611bf78c828d01611a04565b9a9d999c50979a96999598959660808101359660a09091013595509350505050565b6000815180845260005b81811015611c3f57602081850181015186830182015201611c23565b506000602082860101526020601f19601f83011685010191505092915050565b60006020808301818452808551808352604092508286019150828160051b87010184880160005b83811015611d5657603f1989840301855281516101208151855288820151818a870152611cb582870182611c19565b91505087820151611cd0898701826001600160a01b03169052565b506060828101519086015260808083015186830382880152611cf28382611c19565b9250505060a08083015186830382880152611d0d8382611c19565b9250505060c080830151818701525060e08083015181870152506101008083015192508582038187015250611d428183611c19565b968901969450505090860190600101611c86565b509098975050505050505050565b6020808252825182820181905260009190848201906040850190845b81811015611dc357611db0838551805182526020808201516001600160a01b031690830152604090810151910152565b9284019260609290920191600101611d80565b50909695505050505050565b60006101208b8352806020840152611de98184018c611c19565b6001600160a01b038b166040850152606084018a905283810360808501529050611e138189611c19565b905082810360a0840152611e278188611c19565b90508560c08401528460e0840152828103610100840152611e488185611c19565b9c9b505050505050505050505050565b6020808252825182820181905260009190848201906040850190845b81811015611dc357611ea4838551805182526020808201516001600160a01b031690830152604090810151910152565b9284019260609290920191600101611e74565b81835281816020850137506000828201602090810191909152601f909101601f19169091010190565b848152606060208201526000611efa606083018587611eb7565b905060018060a01b038316604083015295945050505050565b600060208284031215611f2557600080fd5b5051919050565b634e487b7160e01b600052604160045260246000fd5b600181811c90821680611f5657607f821691505b602082108103611f7657634e487b7160e01b600052602260045260246000fd5b50919050565b601f821115611fc657600081815260208120601f850160051c81016020861015611fa35750805b601f850160051c820191505b81811015611fc257828155600101611faf565b5050505b505050565b600019600383901b1c191660019190911b1790565b815167ffffffffffffffff811115611ffa57611ffa611f2c565b61200e816120088454611f42565b84611f7c565b602080601f83116001811461203d576000841561202b5750858301515b6120358582611fcb565b865550611fc2565b600085815260208120601f198616915b8281101561206c5788860151825594840194600190910190840161204d565b508582101561208a5787850151600019600388901b60f8161c191681555b5050505050600190811b01905550565b634e487b7160e01b600052601160045260246000fd5b818103818111156120c3576120c361209a565b92915050565b6000600182016120db576120db61209a565b5060010190565b634e487b7160e01b600052603260045260246000fd5b67ffffffffffffffff83111561211057612110611f2c565b6121248361211e8354611f42565b83611f7c565b6000601f84116001811461215257600085156121405750838201355b61214a8682611fcb565b8455506121ac565b600083815260209020601f19861690835b828110156121835786850135825560209485019460019092019101612163565b50868210156121a05760001960f88860031b161c19848701351681555b505060018560011b0183555b5050505050565b8381526040602082015260006121cd604083018486611eb7565b95945050505050565b808201808211156120c3576120c361209a565b8181036121f4575050565b6121fe8254611f42565b67ffffffffffffffff81111561221657612216611f2c565b612224816120088454611f42565b6000601f82116001811461225257600083156122405750848201545b61224a8482611fcb565b8555506121ac565b600085815260209020601f19841690600086815260209020845b8381101561228c578286015482556001958601959091019060200161226c565b508583101561208a5793015460001960f8600387901b161c19169092555050600190811b01905550565b634e487b7160e01b600052603160045260246000fdfea26469706673582212203de1d4726033232d89fd0b5d48cd5e65fec3f870c71e2c0c206a11d645947ff864736f6c63430008110033",
  "devdoc": {
    "kind": "dev",
    "methods": {},
    "version": 1
  },
  "userdoc": {
    "kind": "user",
    "methods": {},
    "version": 1
  },
  "storageLayout": {
    "storage": [
      {
        "astId": 759,
        "contract": "contracts/Listings.sol:Listings",
        "label": "currentId",
        "offset": 0,
        "slot": "0",
        "type": "t_uint256"
      },
      {
        "astId": 763,
        "contract": "contracts/Listings.sol:Listings",
        "label": "existingIds",
        "offset": 0,
        "slot": "1",
        "type": "t_mapping(t_uint256,t_bool)"
      },
      {
        "astId": 767,
        "contract": "contracts/Listings.sol:Listings",
        "label": "listings",
        "offset": 0,
        "slot": "2",
        "type": "t_array(t_struct(Listing)743_storage)dyn_storage"
      },
      {
        "astId": 771,
        "contract": "contracts/Listings.sol:Listings",
        "label": "idToIndex",
        "offset": 0,
        "slot": "3",
        "type": "t_mapping(t_uint256,t_uint256)"
      },
      {
        "astId": 780,
        "contract": "contracts/Listings.sol:Listings",
        "label": "connectedUsers",
        "offset": 0,
        "slot": "4",
        "type": "t_mapping(t_uint256,t_mapping(t_address,t_bool))"
      },
      {
        "astId": 787,
        "contract": "contracts/Listings.sol:Listings",
        "label": "listingConnections",
        "offset": 0,
        "slot": "5",
        "type": "t_array(t_struct(ListingConnection)750_storage)dyn_storage"
      },
      {
        "astId": 791,
        "contract": "contracts/Listings.sol:Listings",
        "label": "buyers",
        "offset": 0,
        "slot": "6",
        "type": "t_mapping(t_uint256,t_address)"
      },
      {
        "astId": 798,
        "contract": "contracts/Listings.sol:Listings",
        "label": "listingPayments",
        "offset": 0,
        "slot": "7",
        "type": "t_array(t_struct(ListingPayment)757_storage)dyn_storage"
      }
    ],
    "types": {
      "t_address": {
        "encoding": "inplace",
        "label": "address",
        "numberOfBytes": "20"
      },
      "t_array(t_struct(Listing)743_storage)dyn_storage": {
        "base": "t_struct(Listing)743_storage",
        "encoding": "dynamic_array",
        "label": "struct Listings.Listing[]",
        "numberOfBytes": "32"
      },
      "t_array(t_struct(ListingConnection)750_storage)dyn_storage": {
        "base": "t_struct(ListingConnection)750_storage",
        "encoding": "dynamic_array",
        "label": "struct Listings.ListingConnection[]",
        "numberOfBytes": "32"
      },
      "t_array(t_struct(ListingPayment)757_storage)dyn_storage": {
        "base": "t_struct(ListingPayment)757_storage",
        "encoding": "dynamic_array",
        "label": "struct Listings.ListingPayment[]",
        "numberOfBytes": "32"
      },
      "t_bool": {
        "encoding": "inplace",
        "label": "bool",
        "numberOfBytes": "1"
      },
      "t_bytes32": {
        "encoding": "inplace",
        "label": "bytes32",
        "numberOfBytes": "32"
      },
      "t_mapping(t_address,t_bool)": {
        "encoding": "mapping",
        "key": "t_address",
        "label": "mapping(address => bool)",
        "numberOfBytes": "32",
        "value": "t_bool"
      },
      "t_mapping(t_uint256,t_address)": {
        "encoding": "mapping",
        "key": "t_uint256",
        "label": "mapping(uint256 => address)",
        "numberOfBytes": "32",
        "value": "t_address"
      },
      "t_mapping(t_uint256,t_bool)": {
        "encoding": "mapping",
        "key": "t_uint256",
        "label": "mapping(uint256 => bool)",
        "numberOfBytes": "32",
        "value": "t_bool"
      },
      "t_mapping(t_uint256,t_mapping(t_address,t_bool))": {
        "encoding": "mapping",
        "key": "t_uint256",
        "label": "mapping(uint256 => mapping(address => bool))",
        "numberOfBytes": "32",
        "value": "t_mapping(t_address,t_bool)"
      },
      "t_mapping(t_uint256,t_uint256)": {
        "encoding": "mapping",
        "key": "t_uint256",
        "label": "mapping(uint256 => uint256)",
        "numberOfBytes": "32",
        "value": "t_uint256"
      },
      "t_string_storage": {
        "encoding": "bytes",
        "label": "string",
        "numberOfBytes": "32"
      },
      "t_struct(Listing)743_storage": {
        "encoding": "inplace",
        "label": "struct Listings.Listing",
        "members": [
          {
            "astId": 726,
            "contract": "contracts/Listings.sol:Listings",
            "label": "id",
            "offset": 0,
            "slot": "0",
            "type": "t_uint256"
          },
          {
            "astId": 728,
            "contract": "contracts/Listings.sol:Listings",
            "label": "name",
            "offset": 0,
            "slot": "1",
            "type": "t_string_storage"
          },
          {
            "astId": 730,
            "contract": "contracts/Listings.sol:Listings",
            "label": "seller",
            "offset": 0,
            "slot": "2",
            "type": "t_address"
          },
          {
            "astId": 732,
            "contract": "contracts/Listings.sol:Listings",
            "label": "attestationUID",
            "offset": 0,
            "slot": "3",
            "type": "t_bytes32"
          },
          {
            "astId": 734,
            "contract": "contracts/Listings.sol:Listings",
            "label": "location",
            "offset": 0,
            "slot": "4",
            "type": "t_string_storage"
          },
          {
            "astId": 736,
            "contract": "contracts/Listings.sol:Listings",
            "label": "description",
            "offset": 0,
            "slot": "5",
            "type": "t_string_storage"
          },
          {
            "astId": 738,
            "contract": "contracts/Listings.sol:Listings",
            "label": "price",
            "offset": 0,
            "slot": "6",
            "type": "t_uint256"
          },
          {
            "astId": 740,
            "contract": "contracts/Listings.sol:Listings",
            "label": "beds",
            "offset": 0,
            "slot": "7",
            "type": "t_uint256"
          },
          {
            "astId": 742,
            "contract": "contracts/Listings.sol:Listings",
            "label": "cid",
            "offset": 0,
            "slot": "8",
            "type": "t_string_storage"
          }
        ],
        "numberOfBytes": "288"
      },
      "t_struct(ListingConnection)750_storage": {
        "encoding": "inplace",
        "label": "struct Listings.ListingConnection",
        "members": [
          {
            "astId": 745,
            "contract": "contracts/Listings.sol:Listings",
            "label": "listingId",
            "offset": 0,
            "slot": "0",
            "type": "t_uint256"
          },
          {
            "astId": 747,
            "contract": "contracts/Listings.sol:Listings",
            "label": "connectedUser",
            "offset": 0,
            "slot": "1",
            "type": "t_address"
          },
          {
            "astId": 749,
            "contract": "contracts/Listings.sol:Listings",
            "label": "attestationUID",
            "offset": 0,
            "slot": "2",
            "type": "t_bytes32"
          }
        ],
        "numberOfBytes": "96"
      },
      "t_struct(ListingPayment)757_storage": {
        "encoding": "inplace",
        "label": "struct Listings.ListingPayment",
        "members": [
          {
            "astId": 752,
            "contract": "contracts/Listings.sol:Listings",
            "label": "listingId",
            "offset": 0,
            "slot": "0",
            "type": "t_uint256"
          },
          {
            "astId": 754,
            "contract": "contracts/Listings.sol:Listings",
            "label": "buyer",
            "offset": 0,
            "slot": "1",
            "type": "t_address"
          },
          {
            "astId": 756,
            "contract": "contracts/Listings.sol:Listings",
            "label": "attestationUID",
            "offset": 0,
            "slot": "2",
            "type": "t_bytes32"
          }
        ],
        "numberOfBytes": "96"
      },
      "t_uint256": {
        "encoding": "inplace",
        "label": "uint256",
        "numberOfBytes": "32"
      }
    }
  }
}