{
  "address": "0x3c0fc15918c7a1236a484A23cab8D10F65EB8dfE",
  "abi": [
    {
      "inputs": [
        {
          "internalType": "contract IEAS",
          "name": "eas",
          "type": "address"
        },
        {
          "internalType": "bytes32",
          "name": "listingConnectionSchemaUID",
          "type": "bytes32"
        }
      ],
      "stateMutability": "nonpayable",
      "type": "constructor"
    },
    {
      "inputs": [],
      "name": "InvalidEAS",
      "type": "error"
    },
    {
      "inputs": [],
      "name": "_eas",
      "outputs": [
        {
          "internalType": "contract IEAS",
          "name": "",
          "type": "address"
        }
      ],
      "stateMutability": "view",
      "type": "function"
    },
    {
      "inputs": [],
      "name": "_listingConnectionSchemaUID",
      "outputs": [
        {
          "internalType": "bytes32",
          "name": "",
          "type": "bytes32"
        }
      ],
      "stateMutability": "view",
      "type": "function"
    },
    {
      "inputs": [
        {
          "internalType": "uint256",
          "name": "listingId",
          "type": "uint256"
        },
        {
          "internalType": "address",
          "name": "seller",
          "type": "address"
        },
        {
          "internalType": "address",
          "name": "buyer",
          "type": "address"
        }
      ],
      "name": "attestListingConnection",
      "outputs": [
        {
          "internalType": "bytes32",
          "name": "attestationUID",
          "type": "bytes32"
        }
      ],
      "stateMutability": "nonpayable",
      "type": "function"
    }
  ],
  "transactionHash": "0x1385940669d4f0853b8b3bba16afc307548151f6b00b92b9847bc43b848f89f3",
  "args": [
    "0x4200000000000000000000000000000000000021",
    "0x70f935e1f3139195e5f2baf984dc658e725257d70db44f9571f3ab317d22a211"
  ],
  "numDeployments": 2,
  "solcInputHash": "0e9667f569f282eb2b1af57df7cb52c7",
  "bytecode": "0x60c060405234801561001057600080fd5b5060405161044f38038061044f83398101604081905261002f9161006c565b6001600160a01b038216610056576040516341bc07ff60e11b815260040160405180910390fd5b6001600160a01b0390911660805260a0526100a6565b6000806040838503121561007f57600080fd5b82516001600160a01b038116811461009657600080fd5b6020939093015192949293505050565b60805160a0516103796100d660003960008181608f015261010b015260008181604b015260d101526103796000f3fe608060405234801561001057600080fd5b50600436106100415760003560e01c806330f97eea146100465780638338f1181461008a578063ab57a942146100bf575b600080fd5b61006d7f000000000000000000000000000000000000000000000000000000000000000081565b6040516001600160a01b0390911681526020015b60405180910390f35b6100b17f000000000000000000000000000000000000000000000000000000000000000081565b604051908152602001610081565b6100b16100cd36600461023a565b60007f00000000000000000000000000000000000000000000000000000000000000006001600160a01b031663f17325e760405180604001604052807f000000000000000000000000000000000000000000000000000000000000000081526020016040518060c00160405280876001600160a01b03168152602001600067ffffffffffffffff1681526020016001151581526020016000801b815260200189898960405160200161019b939291909283526001600160a01b03918216602084015216604082015260600190565b604051602081830303815290604052815260200160008152508152506040518263ffffffff1660e01b81526004016101d39190610276565b6020604051808303816000875af11580156101f2573d6000803e3d6000fd5b505050506040513d601f19601f82011682018060405250810190610216919061032a565b949350505050565b80356001600160a01b038116811461023557600080fd5b919050565b60008060006060848603121561024f57600080fd5b8335925061025f6020850161021e565b915061026d6040850161021e565b90509250925092565b600060208083528351818401528084015160408085015260018060a01b03815116606085015267ffffffffffffffff828201511660808501526040810151151560a0850152606081015160c0850152608081015160c060e086015280518061012087015260005b818110156102fa57828101850151878201610140015284016102dd565b5060008682016101409081019190915260a09390930151610100870152601f01601f191690940101949350505050565b60006020828403121561033c57600080fd5b505191905056fea2646970667358221220e65cc7eb3492b0d4980b1adc60c241819ba7ac05d55959fe69208bbdc05b650e64736f6c63430008110033",
  "devdoc": {
    "kind": "dev",
    "methods": {},
    "version": 1
  },
  "userdoc": {
    "kind": "user",
    "methods": {},
    "version": 1
  },
  "storageLayout": {
    "storage": [],
    "types": null
  }
}